{
  "address": "0x3d0B3b816DC1e0825808F27510eF7Aa5E3136D75",
  "abi": [
    {
      "inputs": [
        {
          "internalType": "uint256",
          "name": "_pid",
          "type": "uint256"
        },
        {
          "internalType": "address",
          "name": "_minichef",
          "type": "address"
        }
      ],
      "stateMutability": "nonpayable",
      "type": "constructor"
    },
    {
      "anonymous": false,
      "inputs": [
        {
          "indexed": true,
          "internalType": "address",
          "name": "newBridgeAdapter",
          "type": "address"
        }
      ],
      "name": "BridgeUpdated",
      "type": "event"
    },
    {
      "anonymous": false,
      "inputs": [
        {
          "indexed": true,
          "internalType": "address",
          "name": "minichef",
          "type": "address"
        },
        {
          "indexed": true,
          "internalType": "uint256",
          "name": "amount",
          "type": "uint256"
        }
      ],
      "name": "BridgedSushi",
      "type": "event"
    },
    {
      "anonymous": false,
      "inputs": [
        {
          "indexed": true,
          "internalType": "uint256",
          "name": "pid",
          "type": "uint256"
        },
        {
          "indexed": true,
          "internalType": "uint256",
          "name": "amount",
          "type": "uint256"
        }
      ],
      "name": "Deposited",
      "type": "event"
    },
    {
      "anonymous": false,
      "inputs": [
        {
          "indexed": true,
          "internalType": "uint256",
          "name": "pid",
          "type": "uint256"
        }
      ],
      "name": "Harvested",
      "type": "event"
    },
    {
      "anonymous": false,
      "inputs": [
        {
          "indexed": true,
          "internalType": "address",
          "name": "previousOwner",
          "type": "address"
        },
        {
          "indexed": true,
          "internalType": "address",
          "name": "newOwner",
          "type": "address"
        }
      ],
      "name": "OwnershipTransferred",
      "type": "event"
    },
    {
      "anonymous": false,
      "inputs": [
        {
          "indexed": true,
          "internalType": "uint256",
          "name": "pid",
          "type": "uint256"
        },
        {
          "indexed": true,
          "internalType": "uint256",
          "name": "amount",
          "type": "uint256"
        }
      ],
      "name": "Withdrawn",
      "type": "event"
    },
    {
      "anonymous": false,
      "inputs": [
        {
          "indexed": true,
          "internalType": "uint256",
          "name": "pid",
          "type": "uint256"
        }
      ],
      "name": "WithdrawnDummyToken",
      "type": "event"
    },
    {
      "anonymous": false,
      "inputs": [
        {
          "indexed": true,
          "internalType": "uint256",
          "name": "pid",
          "type": "uint256"
        },
        {
          "indexed": true,
          "internalType": "uint256",
          "name": "amount",
          "type": "uint256"
        }
      ],
      "name": "WithdrawnSushi",
      "type": "event"
    },
    {
      "inputs": [],
      "name": "bridge",
      "outputs": [],
      "stateMutability": "nonpayable",
      "type": "function"
    },
    {
      "inputs": [],
      "name": "bridgeAdapter",
      "outputs": [
        {
          "internalType": "address",
          "name": "",
          "type": "address"
        }
      ],
      "stateMutability": "view",
      "type": "function"
    },
    {
      "inputs": [],
      "name": "bridgeAddr",
      "outputs": [
        {
          "internalType": "address",
          "name": "",
          "type": "address"
        }
      ],
      "stateMutability": "view",
      "type": "function"
    },
    {
      "inputs": [
        {
          "internalType": "address",
          "name": "token",
          "type": "address"
        }
      ],
      "name": "deposit",
      "outputs": [],
      "stateMutability": "nonpayable",
      "type": "function"
    },
    {
      "inputs": [],
      "name": "harvestAndBridge",
      "outputs": [],
      "stateMutability": "nonpayable",
      "type": "function"
    },
    {
      "inputs": [],
      "name": "masterchefV1",
      "outputs": [
        {
          "internalType": "contract IMasterChefV1",
          "name": "",
          "type": "address"
        }
      ],
      "stateMutability": "view",
      "type": "function"
    },
    {
      "inputs": [],
      "name": "minichef",
      "outputs": [
        {
          "internalType": "address",
          "name": "",
          "type": "address"
        }
      ],
      "stateMutability": "view",
      "type": "function"
    },
    {
      "inputs": [],
      "name": "owner",
      "outputs": [
        {
          "internalType": "address",
          "name": "",
          "type": "address"
        }
      ],
      "stateMutability": "view",
      "type": "function"
    },
    {
      "inputs": [],
      "name": "pid",
      "outputs": [
        {
          "internalType": "uint256",
          "name": "",
          "type": "uint256"
        }
      ],
      "stateMutability": "view",
      "type": "function"
    },
    {
      "inputs": [],
      "name": "polygonErcBridge",
      "outputs": [
        {
          "internalType": "address",
          "name": "",
          "type": "address"
        }
      ],
      "stateMutability": "view",
      "type": "function"
    },
    {
      "inputs": [],
      "name": "renounceOwnership",
      "outputs": [],
      "stateMutability": "nonpayable",
      "type": "function"
    },
    {
      "inputs": [],
      "name": "sushi",
      "outputs": [
        {
          "internalType": "contract IERC20",
          "name": "",
          "type": "address"
        }
      ],
      "stateMutability": "view",
      "type": "function"
    },
    {
      "inputs": [
        {
          "internalType": "address",
          "name": "newOwner",
          "type": "address"
        }
      ],
      "name": "transferOwnership",
      "outputs": [],
      "stateMutability": "nonpayable",
      "type": "function"
    },
    {
      "inputs": [
        {
          "internalType": "address",
          "name": "newBridgeAdapter",
          "type": "address"
        }
      ],
      "name": "updateBridgeAdapter",
      "outputs": [],
      "stateMutability": "nonpayable",
      "type": "function"
    },
    {
      "inputs": [],
      "name": "withdraw",
      "outputs": [],
      "stateMutability": "nonpayable",
      "type": "function"
    },
    {
      "inputs": [
        {
          "internalType": "address",
          "name": "token",
          "type": "address"
        },
        {
          "internalType": "address",
          "name": "recipient",
          "type": "address"
        }
      ],
      "name": "withdrawDummyToken",
      "outputs": [],
      "stateMutability": "nonpayable",
      "type": "function"
    },
    {
      "inputs": [
        {
          "internalType": "address",
          "name": "recipient",
          "type": "address"
        }
      ],
      "name": "withdrawSushiToken",
      "outputs": [],
      "stateMutability": "nonpayable",
      "type": "function"
    }
  ],
  "transactionHash": "0x74602300ccdf790f24dbd56bf4582a2995282cb043ca77b1673690fa03849a99",
  "args": [
    344,
    "0x0769fd68dFb93167989C6f7254cd0D766Fb2841F"
  ],
  "solcInputHash": "b6b96639bb7925217c746581f4d9ba5e",
  "bytecode": "0x60c060405234801561001057600080fd5b506040516115cc3803806115cc83398101604081905261002f916100b5565b818161003a33610065565b6080919091526001600160a01b031660a0525050600180546001600160a01b031916301790556100f2565b600080546001600160a01b038381166001600160a01b0319831681178455604051919092169283917f8be0079c531659141344cd1fd0a4f28419497f9722a3daafe3b4186f6b6457e09190a35050565b600080604083850312156100c857600080fd5b825160208401519092506001600160a01b03811681146100e757600080fd5b809150509250929050565b60805160a05161146f61015d600039600081816101aa015281816111c6015261126e01526000818161027b0152818161037f015281816104020152818161076501528181610975015281816109e701528181610a7001528181610f2c0152610faf015261146f6000f3fe608060405234801561001057600080fd5b506004361061011b5760003560e01c8063b62f5765116100b2578063d24a89d511610081578063f106845411610066578063f106845414610276578063f2fde38b146102ab578063f340fa01146102be57600080fd5b8063d24a89d514610266578063e78cea921461026e57600080fd5b8063b62f576514610205578063b7d87f7314610218578063be7dc09b1461022b578063ca5a79ea1461024b57600080fd5b8063715018a6116100ee578063715018a61461019d57806387fcfb97146101a55780638da5cb5b146101cc57806391874ef7146101ea57600080fd5b80630a0879031461012057806331d8be33146101655780633ccfd60b146101805780635e9ec2a41461018a575b600080fd5b61013b736b3595068778dd592e39a122f4f5a5cf09c90fe281565b60405173ffffffffffffffffffffffffffffffffffffffff90911681526020015b60405180910390f35b61013b7340ec5b33f54e0e8a33a975908c5ba1c14e5bbbdf81565b6101886102d1565b005b61018861019836600461130c565b61044b565b6101886105b8565b61013b7f000000000000000000000000000000000000000000000000000000000000000081565b60005473ffffffffffffffffffffffffffffffffffffffff1661013b565b61013b73a0c68c638235ee32657e8f720a23cec1bfc77c7781565b61018861021336600461132e565b610645565b61018861022636600461130c565b6107af565b60015461013b9073ffffffffffffffffffffffffffffffffffffffff1681565b61013b73c2edad668740f1aa35e4d8f227fb8e17dca888cd81565b6101886109bf565b610188610ab8565b61029d7f000000000000000000000000000000000000000000000000000000000000000081565b60405190815260200161015c565b6101886102b936600461130c565b610ca7565b6101886102cc36600461130c565b610dd7565b60005473ffffffffffffffffffffffffffffffffffffffff163314610357576040517f08c379a000000000000000000000000000000000000000000000000000000000815260206004820181905260248201527f4f776e61626c653a2063616c6c6572206973206e6f7420746865206f776e657260448201526064015b60405180910390fd5b6040517f441a3e700000000000000000000000000000000000000000000000000000000081527f000000000000000000000000000000000000000000000000000000000000000060048201526001602482015273c2edad668740f1aa35e4d8f227fb8e17dca888cd9063441a3e7090604401600060405180830381600087803b1580156103e357600080fd5b505af11580156103f7573d6000803e3d6000fd5b5050604051600192507f000000000000000000000000000000000000000000000000000000000000000091507f0c875c8d391179c5cf7ad8303d268efd50b8beb78b671f85cd54bfb91eb8ef4090600090a3565b60005473ffffffffffffffffffffffffffffffffffffffff1633146104cc576040517f08c379a000000000000000000000000000000000000000000000000000000000815260206004820181905260248201527f4f776e61626c653a2063616c6c6572206973206e6f7420746865206f776e6572604482015260640161034e565b73ffffffffffffffffffffffffffffffffffffffff8116610549576040517f08c379a000000000000000000000000000000000000000000000000000000000815260206004820152600c60248201527f7a65726f20616464726573730000000000000000000000000000000000000000604482015260640161034e565b600180547fffffffffffffffffffffffff00000000000000000000000000000000000000001673ffffffffffffffffffffffffffffffffffffffff83169081179091556040517fe1694c0b21fdceff6411daed547c7463c2341b9695387bc82595b5b9b1851d4a90600090a250565b60005473ffffffffffffffffffffffffffffffffffffffff163314610639576040517f08c379a000000000000000000000000000000000000000000000000000000000815260206004820181905260248201527f4f776e61626c653a2063616c6c6572206973206e6f7420746865206f776e6572604482015260640161034e565b6106436000610ff9565b565b60005473ffffffffffffffffffffffffffffffffffffffff1633146106c6576040517f08c379a000000000000000000000000000000000000000000000000000000000815260206004820181905260248201527f4f776e61626c653a2063616c6c6572206973206e6f7420746865206f776e6572604482015260640161034e565b6040517fa9059cbb00000000000000000000000000000000000000000000000000000000815273ffffffffffffffffffffffffffffffffffffffff82811660048301526001602483015283169063a9059cbb906044016020604051808303816000875af115801561073b573d6000803e3d6000fd5b505050506040513d601f19601f8201168201806040525081019061075f9190611361565b506040517f0000000000000000000000000000000000000000000000000000000000000000907fba72a1c6fb7c9e7f35c71c2c716849c2ccd659d35f4fdc3449b7240130da52d590600090a25050565b60005473ffffffffffffffffffffffffffffffffffffffff163314610830576040517f08c379a000000000000000000000000000000000000000000000000000000000815260206004820181905260248201527f4f776e61626c653a2063616c6c6572206973206e6f7420746865206f776e6572604482015260640161034e565b6040517f70a08231000000000000000000000000000000000000000000000000000000008152306004820152600090736b3595068778dd592e39a122f4f5a5cf09c90fe2906370a0823190602401602060405180830381865afa15801561089b573d6000803e3d6000fd5b505050506040513d601f19601f820116820180604052508101906108bf9190611383565b6040517fa9059cbb00000000000000000000000000000000000000000000000000000000815273ffffffffffffffffffffffffffffffffffffffff8416600482015260248101829052909150736b3595068778dd592e39a122f4f5a5cf09c90fe29063a9059cbb906044016020604051808303816000875af1158015610949573d6000803e3d6000fd5b505050506040513d601f19601f8201168201806040525081019061096d9190611361565b5060405181907f0000000000000000000000000000000000000000000000000000000000000000907f8b39ec9eff477fd9d48c21ccd568bc1b6579e08559a161a7679819240975533e90600090a35050565b6040517f441a3e700000000000000000000000000000000000000000000000000000000081527f000000000000000000000000000000000000000000000000000000000000000060048201526000602482015273c2edad668740f1aa35e4d8f227fb8e17dca888cd9063441a3e7090604401600060405180830381600087803b158015610a4b57600080fd5b505af1158015610a5f573d6000803e3d6000fd5b50505050610a6b610ab8565b6040517f0000000000000000000000000000000000000000000000000000000000000000907f8e55ccfc9778ff8eba1646d765cf1982537ce0f9257054a17b48aad74525018390600090a2565b60015473ffffffffffffffffffffffffffffffffffffffff16301415610ae05761064361106e565b6040517f70a08231000000000000000000000000000000000000000000000000000000008152306004820152600090736b3595068778dd592e39a122f4f5a5cf09c90fe2906370a0823190602401602060405180830381865afa158015610b4b573d6000803e3d6000fd5b505050506040513d601f19601f82011682018060405250810190610b6f9190611383565b6001546040517fa9059cbb00000000000000000000000000000000000000000000000000000000815273ffffffffffffffffffffffffffffffffffffffff909116600482015260248101829052909150736b3595068778dd592e39a122f4f5a5cf09c90fe29063a9059cbb906044016020604051808303816000875af1158015610bfd573d6000803e3d6000fd5b505050506040513d601f19601f82011682018060405250810190610c219190611361565b50600160009054906101000a900473ffffffffffffffffffffffffffffffffffffffff1673ffffffffffffffffffffffffffffffffffffffff1663e78cea926040518163ffffffff1660e01b8152600401600060405180830381600087803b158015610c8c57600080fd5b505af1158015610ca0573d6000803e3d6000fd5b5050505050565b60005473ffffffffffffffffffffffffffffffffffffffff163314610d28576040517f08c379a000000000000000000000000000000000000000000000000000000000815260206004820181905260248201527f4f776e61626c653a2063616c6c6572206973206e6f7420746865206f776e6572604482015260640161034e565b73ffffffffffffffffffffffffffffffffffffffff8116610dcb576040517f08c379a000000000000000000000000000000000000000000000000000000000815260206004820152602660248201527f4f776e61626c653a206e6577206f776e657220697320746865207a65726f206160448201527f6464726573730000000000000000000000000000000000000000000000000000606482015260840161034e565b610dd481610ff9565b50565b60005473ffffffffffffffffffffffffffffffffffffffff163314610e58576040517f08c379a000000000000000000000000000000000000000000000000000000000815260206004820181905260248201527f4f776e61626c653a2063616c6c6572206973206e6f7420746865206f776e6572604482015260640161034e565b6040517f095ea7b300000000000000000000000000000000000000000000000000000000815273c2edad668740f1aa35e4d8f227fb8e17dca888cd60048201526001602482015273ffffffffffffffffffffffffffffffffffffffff82169063095ea7b3906044016020604051808303816000875af1158015610edf573d6000803e3d6000fd5b505050506040513d601f19601f82011682018060405250810190610f039190611361565b506040517fe2bbb1580000000000000000000000000000000000000000000000000000000081527f000000000000000000000000000000000000000000000000000000000000000060048201526001602482015273c2edad668740f1aa35e4d8f227fb8e17dca888cd9063e2bbb15890604401600060405180830381600087803b158015610f9057600080fd5b505af1158015610fa4573d6000803e3d6000fd5b5050604051600192507f000000000000000000000000000000000000000000000000000000000000000091507f06da3309189fa49284f335d2c2bcb4cb0b8ad2a59ad92a9bdebeeb8f1ceba51190600090a350565b6000805473ffffffffffffffffffffffffffffffffffffffff8381167fffffffffffffffffffffffff0000000000000000000000000000000000000000831681178455604051919092169283917f8be0079c531659141344cd1fd0a4f28419497f9722a3daafe3b4186f6b6457e09190a35050565b6040517f70a08231000000000000000000000000000000000000000000000000000000008152306004820152600090736b3595068778dd592e39a122f4f5a5cf09c90fe2906370a0823190602401602060405180830381865afa1580156110d9573d6000803e3d6000fd5b505050506040513d601f19601f820116820180604052508101906110fd9190611383565b6040517f095ea7b30000000000000000000000000000000000000000000000000000000081527340ec5b33f54e0e8a33a975908c5ba1c14e5bbbdf600482015260248101829052909150736b3595068778dd592e39a122f4f5a5cf09c90fe29063095ea7b3906044016020604051808303816000875af1158015611185573d6000803e3d6000fd5b505050506040513d601f19601f820116820180604052508101906111a99190611361565b5073a0c68c638235ee32657e8f720a23cec1bfc77c7763e3dec8fb7f0000000000000000000000000000000000000000000000000000000000000000736b3595068778dd592e39a122f4f5a5cf09c90fe2611203856112b9565b6040518463ffffffff1660e01b81526004016112219392919061139c565b600060405180830381600087803b15801561123b57600080fd5b505af115801561124f573d6000803e3d6000fd5b505060405183925073ffffffffffffffffffffffffffffffffffffffff7f00000000000000000000000000000000000000000000000000000000000000001691507f9d48f6ecbf6b1efdebdb866a0442bae03dfdfc3ee5d20cc9f641799ce66c83a290600090a350565b60408051602080825281830190925260609160208201818036833750505060208101929092525090565b803573ffffffffffffffffffffffffffffffffffffffff8116811461130757600080fd5b919050565b60006020828403121561131e57600080fd5b611327826112e3565b9392505050565b6000806040838503121561134157600080fd5b61134a836112e3565b9150611358602084016112e3565b90509250929050565b60006020828403121561137357600080fd5b8151801515811461132757600080fd5b60006020828403121561139557600080fd5b5051919050565b600073ffffffffffffffffffffffffffffffffffffffff8086168352602081861681850152606060408501528451915081606085015260005b828110156113f1578581018201518582016080015281016113d5565b82811115611403576000608084870101525b5050601f017fffffffffffffffffffffffffffffffffffffffffffffffffffffffffffffffe0169190910160800194935050505056fea2646970667358221220a32f21e672c6361d201b17e9ea7a900262271400ad3f2d8d3928c0f017db711b64736f6c634300080a0033",
  "devdoc": {
    "kind": "dev",
    "methods": {
      "owner()": {
        "details": "Returns the address of the current owner."
      },
      "renounceOwnership()": {
        "details": "Leaves the contract without owner. It will not be possible to call `onlyOwner` functions anymore. Can only be called by the current owner. NOTE: Renouncing ownership will leave the contract without an owner, thereby removing any functionality that is only available to the owner."
      },
      "transferOwnership(address)": {
        "details": "Transfers ownership of the contract to a new account (`newOwner`). Can only be called by the current owner."
      }
    },
    "version": 1
  },
  "userdoc": {
    "kind": "user",
    "methods": {},
    "version": 1
  },
  "storageLayout": {
    "storage": [
      {
        "astId": 7,
        "contract": "contracts/implementations/PolygonServer.sol:PolygonServer",
        "label": "_owner",
        "offset": 0,
        "slot": "0",
        "type": "t_address"
      },
      {
        "astId": 818,
        "contract": "contracts/implementations/PolygonServer.sol:PolygonServer",
        "label": "bridgeAdapter",
        "offset": 0,
        "slot": "1",
        "type": "t_address"
      }
    ],
    "types": {
      "t_address": {
        "encoding": "inplace",
        "label": "address",
        "numberOfBytes": "20"
      }
    }
  }
}