{
  "address": "0xd20Ae5aA1FD1e0195cBbD0bD0BD6c8Ef811a0a59",
  "abi": [
    {
      "inputs": [
        {
          "internalType": "address",
          "name": "_masterchef",
          "type": "address"
        },
        {
          "internalType": "uint256",
          "name": "_minTimePeriod",
          "type": "uint256"
        }
      ],
      "stateMutability": "nonpayable",
      "type": "constructor"
    },
    {
      "anonymous": false,
      "inputs": [
        {
          "indexed": true,
          "internalType": "address",
          "name": "previousOwner",
          "type": "address"
        },
        {
          "indexed": true,
          "internalType": "address",
          "name": "newOwner",
          "type": "address"
        }
      ],
      "name": "OwnershipTransferred",
      "type": "event"
    },
    {
      "inputs": [
        {
          "internalType": "bytes",
          "name": "checkData",
          "type": "bytes"
        }
      ],
      "name": "checkUpkeep",
      "outputs": [
        {
          "internalType": "bool",
          "name": "upkeepNeeded",
          "type": "bool"
        },
        {
          "internalType": "bytes",
          "name": "performData",
          "type": "bytes"
        }
      ],
      "stateMutability": "view",
      "type": "function"
    },
    {
      "inputs": [],
      "name": "getServers",
      "outputs": [
        {
          "internalType": "address[]",
          "name": "",
          "type": "address[]"
        }
      ],
      "stateMutability": "view",
      "type": "function"
    },
    {
      "inputs": [
        {
          "internalType": "address",
          "name": "",
          "type": "address"
        }
      ],
      "name": "lastHarvestAndBridge",
      "outputs": [
        {
          "internalType": "uint256",
          "name": "",
          "type": "uint256"
        }
      ],
      "stateMutability": "view",
      "type": "function"
    },
    {
      "inputs": [],
      "name": "minTimePeriod",
      "outputs": [
        {
          "internalType": "uint256",
          "name": "",
          "type": "uint256"
        }
      ],
      "stateMutability": "view",
      "type": "function"
    },
    {
      "inputs": [],
      "name": "owner",
      "outputs": [
        {
          "internalType": "address",
          "name": "",
          "type": "address"
        }
      ],
      "stateMutability": "view",
      "type": "function"
    },
    {
      "inputs": [
        {
          "internalType": "bytes",
          "name": "performData",
          "type": "bytes"
        }
      ],
      "name": "performUpkeep",
      "outputs": [],
      "stateMutability": "nonpayable",
      "type": "function"
    },
    {
      "inputs": [],
      "name": "renounceOwnership",
      "outputs": [],
      "stateMutability": "nonpayable",
      "type": "function"
    },
    {
      "inputs": [
        {
          "internalType": "uint256",
          "name": "newMinTimePeriod",
          "type": "uint256"
        }
      ],
      "name": "setMinTimePeriod",
      "outputs": [],
      "stateMutability": "nonpayable",
      "type": "function"
    },
    {
      "inputs": [
        {
          "internalType": "address[]",
          "name": "_servers",
          "type": "address[]"
        }
      ],
      "name": "setServers",
      "outputs": [],
      "stateMutability": "nonpayable",
      "type": "function"
    },
    {
      "inputs": [
        {
          "internalType": "address",
          "name": "newOwner",
          "type": "address"
        }
      ],
      "name": "transferOwnership",
      "outputs": [],
      "stateMutability": "nonpayable",
      "type": "function"
    }
  ],
  "transactionHash": "0xdce9d63590cd58f61df9e936806ab8a73100fd138745395d47d6069801bfbf18",
  "args": [
    "0xc2EdaD668740f1aA35E4D8f227fB8E17dcA888Cd",
    "604800"
  ],
  "solcInputHash": "e29f487e14c47e94768499f93fc3f61d",
  "bytecode": "0x60a060405234801561001057600080fd5b50604051610eb6380380610eb683398101604081905261002f9161009e565b6100383361004e565b6001600160a01b039091166080526001556100d8565b600080546001600160a01b038381166001600160a01b0319831681178455604051919092169283917f8be0079c531659141344cd1fd0a4f28419497f9722a3daafe3b4186f6b6457e09190a35050565b600080604083850312156100b157600080fd5b82516001600160a01b03811681146100c857600080fd5b6020939093015192949293505050565b608051610dbc6100fa6000396000818161038d01526105d50152610dbc6000f3fe608060405234801561001057600080fd5b50600436106100be5760003560e01c806375c1c7e7116100765780638da5cb5b1161005b5780638da5cb5b1461015c578063f2fde38b14610184578063f3755cb11461019757600080fd5b806375c1c7e7146101305780637b8d81441461014557600080fd5b80634585e33b116100a75780634585e33b146100eb5780636e04ff0d146100fe578063715018a61461012857600080fd5b8063054feba0146100c357806305c3c5c6146100d8575b600080fd5b6100d66100d1366004610ab3565b6101b7565b005b6100d66100e6366004610b28565b6102b5565b6100d66100f9366004610b41565b61033b565b61011161010c366004610b41565b61055c565b60405161011f929190610ba1565b60405180910390f35b6100d6610775565b610138610802565b60405161011f9190610c1e565b61014e60015481565b60405190815260200161011f565b60005460405173ffffffffffffffffffffffffffffffffffffffff909116815260200161011f565b6100d6610192366004610c9a565b610871565b61014e6101a5366004610c9a565b60036020526000908152604090205481565b60005473ffffffffffffffffffffffffffffffffffffffff16331461023d576040517f08c379a000000000000000000000000000000000000000000000000000000000815260206004820181905260248201527f4f776e61626c653a2063616c6c6572206973206e6f7420746865206f776e657260448201526064015b60405180910390fd5b60005b818110156102a357426003600085858581811061025f5761025f610cbe565b90506020020160208101906102749190610c9a565b73ffffffffffffffffffffffffffffffffffffffff168152602081019190915260400160002055600101610240565b506102b060028383610a16565b505050565b60005473ffffffffffffffffffffffffffffffffffffffff163314610336576040517f08c379a000000000000000000000000000000000000000000000000000000000815260206004820181905260248201527f4f776e61626c653a2063616c6c6572206973206e6f7420746865206f776e65726044820152606401610234565b600155565b600061034982840184610c9a565b60015473ffffffffffffffffffffffffffffffffffffffff821660009081526003602052604090205491925042916103819190610d1c565b1080156104cc575060007f000000000000000000000000000000000000000000000000000000000000000073ffffffffffffffffffffffffffffffffffffffff1663195426ec8373ffffffffffffffffffffffffffffffffffffffff1663f10684546040518163ffffffff1660e01b8152600401602060405180830381865afa158015610412573d6000803e3d6000fd5b505050506040513d601f19601f820116820180604052508101906104369190610d34565b6040517fffffffff0000000000000000000000000000000000000000000000000000000060e084901b168152600481019190915273ffffffffffffffffffffffffffffffffffffffff85166024820152604401602060405180830381865afa1580156104a6573d6000803e3d6000fd5b505050506040513d601f19601f820116820180604052508101906104ca9190610d34565b115b156102b0578073ffffffffffffffffffffffffffffffffffffffff1663d24a89d56040518163ffffffff1660e01b8152600401600060405180830381600087803b15801561051957600080fd5b505af115801561052d573d6000803e3d6000fd5b5050505073ffffffffffffffffffffffffffffffffffffffff1660009081526003602052604090204290555050565b600254600090606090825b8181101561076b5760006002828154811061058457610584610cbe565b600091825260208083209091015460015473ffffffffffffffffffffffffffffffffffffffff909116808452600390925260409092205490925042916105c991610d1c565b108015610714575060007f000000000000000000000000000000000000000000000000000000000000000073ffffffffffffffffffffffffffffffffffffffff1663195426ec8373ffffffffffffffffffffffffffffffffffffffff1663f10684546040518163ffffffff1660e01b8152600401602060405180830381865afa15801561065a573d6000803e3d6000fd5b505050506040513d601f19601f8201168201806040525081019061067e9190610d34565b6040517fffffffff0000000000000000000000000000000000000000000000000000000060e084901b168152600481019190915273ffffffffffffffffffffffffffffffffffffffff85166024820152604401602060405180830381865afa1580156106ee573d6000803e3d6000fd5b505050506040513d601f19601f820116820180604052508101906107129190610d34565b115b15610758576040805173ffffffffffffffffffffffffffffffffffffffff83166020820152600191016040516020818303038152906040529450945050505061076e565b508061076381610d4d565b915050610567565b50505b9250929050565b60005473ffffffffffffffffffffffffffffffffffffffff1633146107f6576040517f08c379a000000000000000000000000000000000000000000000000000000000815260206004820181905260248201527f4f776e61626c653a2063616c6c6572206973206e6f7420746865206f776e65726044820152606401610234565b61080060006109a1565b565b6060600280548060200260200160405190810160405280929190818152602001828054801561086757602002820191906000526020600020905b815473ffffffffffffffffffffffffffffffffffffffff16815260019091019060200180831161083c575b5050505050905090565b60005473ffffffffffffffffffffffffffffffffffffffff1633146108f2576040517f08c379a000000000000000000000000000000000000000000000000000000000815260206004820181905260248201527f4f776e61626c653a2063616c6c6572206973206e6f7420746865206f776e65726044820152606401610234565b73ffffffffffffffffffffffffffffffffffffffff8116610995576040517f08c379a000000000000000000000000000000000000000000000000000000000815260206004820152602660248201527f4f776e61626c653a206e6577206f776e657220697320746865207a65726f206160448201527f64647265737300000000000000000000000000000000000000000000000000006064820152608401610234565b61099e816109a1565b50565b6000805473ffffffffffffffffffffffffffffffffffffffff8381167fffffffffffffffffffffffff0000000000000000000000000000000000000000831681178455604051919092169283917f8be0079c531659141344cd1fd0a4f28419497f9722a3daafe3b4186f6b6457e09190a35050565b828054828255906000526020600020908101928215610a8e579160200282015b82811115610a8e5781547fffffffffffffffffffffffff00000000000000000000000000000000000000001673ffffffffffffffffffffffffffffffffffffffff843516178255602090920191600190910190610a36565b50610a9a929150610a9e565b5090565b5b80821115610a9a5760008155600101610a9f565b60008060208385031215610ac657600080fd5b823567ffffffffffffffff80821115610ade57600080fd5b818501915085601f830112610af257600080fd5b813581811115610b0157600080fd5b8660208260051b8501011115610b1657600080fd5b60209290920196919550909350505050565b600060208284031215610b3a57600080fd5b5035919050565b60008060208385031215610b5457600080fd5b823567ffffffffffffffff80821115610b6c57600080fd5b818501915085601f830112610b8057600080fd5b813581811115610b8f57600080fd5b866020828501011115610b1657600080fd5b821515815260006020604081840152835180604085015260005b81811015610bd757858101830151858201606001528201610bbb565b81811115610be9576000606083870101525b50601f017fffffffffffffffffffffffffffffffffffffffffffffffffffffffffffffffe01692909201606001949350505050565b6020808252825182820181905260009190848201906040850190845b81811015610c6c57835173ffffffffffffffffffffffffffffffffffffffff1683529284019291840191600101610c3a565b50909695505050505050565b73ffffffffffffffffffffffffffffffffffffffff8116811461099e57600080fd5b600060208284031215610cac57600080fd5b8135610cb781610c78565b9392505050565b7f4e487b7100000000000000000000000000000000000000000000000000000000600052603260045260246000fd5b7f4e487b7100000000000000000000000000000000000000000000000000000000600052601160045260246000fd5b60008219821115610d2f57610d2f610ced565b500190565b600060208284031215610d4657600080fd5b5051919050565b60007fffffffffffffffffffffffffffffffffffffffffffffffffffffffffffffffff821415610d7f57610d7f610ced565b506001019056fea264697066735822122053b78e893957ff99cc75b169794f285614e2e608500ecccbc92792470ff1d4e564736f6c634300080a0033",
  "devdoc": {
    "kind": "dev",
    "methods": {
      "owner()": {
        "details": "Returns the address of the current owner."
      },
      "renounceOwnership()": {
        "details": "Leaves the contract without owner. It will not be possible to call `onlyOwner` functions anymore. Can only be called by the current owner. NOTE: Renouncing ownership will leave the contract without an owner, thereby removing any functionality that is only available to the owner."
      },
      "transferOwnership(address)": {
        "details": "Transfers ownership of the contract to a new account (`newOwner`). Can only be called by the current owner."
      }
    },
    "version": 1
  },
  "userdoc": {
    "kind": "user",
    "methods": {
      "checkUpkeep(bytes)": {
        "notice": "View function checked by the keeper on every block"
      },
      "getServers()": {
        "notice": "Servers array getter"
      },
      "performUpkeep(bytes)": {
        "notice": "Function executed by the keeper if checkUpKeep returns true"
      },
      "setServers(address[])": {
        "notice": "Set the array of servers to be checked by the keeper"
      }
    },
    "version": 1
  },
  "storageLayout": {
    "storage": [
      {
        "astId": 7,
        "contract": "contracts/ServersKeeper.sol:ServersKeeper",
        "label": "_owner",
        "offset": 0,
        "slot": "0",
        "type": "t_address"
      },
      {
        "astId": 1131,
        "contract": "contracts/ServersKeeper.sol:ServersKeeper",
        "label": "minTimePeriod",
        "offset": 0,
        "slot": "1",
        "type": "t_uint256"
      },
      {
        "astId": 1134,
        "contract": "contracts/ServersKeeper.sol:ServersKeeper",
        "label": "servers",
        "offset": 0,
        "slot": "2",
        "type": "t_array(t_address)dyn_storage"
      },
      {
        "astId": 1138,
        "contract": "contracts/ServersKeeper.sol:ServersKeeper",
        "label": "lastHarvestAndBridge",
        "offset": 0,
        "slot": "3",
        "type": "t_mapping(t_address,t_uint256)"
      }
    ],
    "types": {
      "t_address": {
        "encoding": "inplace",
        "label": "address",
        "numberOfBytes": "20"
      },
      "t_array(t_address)dyn_storage": {
        "base": "t_address",
        "encoding": "dynamic_array",
        "label": "address[]",
        "numberOfBytes": "32"
      },
      "t_mapping(t_address,t_uint256)": {
        "encoding": "mapping",
        "key": "t_address",
        "label": "mapping(address => uint256)",
        "numberOfBytes": "32",
        "value": "t_uint256"
      },
      "t_uint256": {
        "encoding": "inplace",
        "label": "uint256",
        "numberOfBytes": "32"
      }
    }
  }
}