{
  "address": "0xD5dAED0Bf70185fC0FB1fcb46333d1533657A666",
  "abi": [
    {
      "inputs": [
        {
          "internalType": "address",
          "name": "_masterchef",
          "type": "address"
        },
        {
          "internalType": "uint256",
          "name": "_minSushiAmount",
          "type": "uint256"
        }
      ],
      "stateMutability": "nonpayable",
      "type": "constructor"
    },
    {
      "anonymous": false,
      "inputs": [
        {
          "indexed": true,
          "internalType": "address",
          "name": "previousOwner",
          "type": "address"
        },
        {
          "indexed": true,
          "internalType": "address",
          "name": "newOwner",
          "type": "address"
        }
      ],
      "name": "OwnershipTransferred",
      "type": "event"
    },
    {
      "inputs": [
        {
          "internalType": "bytes",
          "name": "checkData",
          "type": "bytes"
        }
      ],
      "name": "checkUpkeep",
      "outputs": [
        {
          "internalType": "bool",
          "name": "upkeepNeeded",
          "type": "bool"
        },
        {
          "internalType": "bytes",
          "name": "performData",
          "type": "bytes"
        }
      ],
      "stateMutability": "view",
      "type": "function"
    },
    {
      "inputs": [],
      "name": "getServers",
      "outputs": [
        {
          "internalType": "address[]",
          "name": "",
          "type": "address[]"
        }
      ],
      "stateMutability": "view",
      "type": "function"
    },
    {
      "inputs": [],
      "name": "minSushiAmount",
      "outputs": [
        {
          "internalType": "uint256",
          "name": "",
          "type": "uint256"
        }
      ],
      "stateMutability": "view",
      "type": "function"
    },
    {
      "inputs": [],
      "name": "owner",
      "outputs": [
        {
          "internalType": "address",
          "name": "",
          "type": "address"
        }
      ],
      "stateMutability": "view",
      "type": "function"
    },
    {
      "inputs": [
        {
          "internalType": "bytes",
          "name": "performData",
          "type": "bytes"
        }
      ],
      "name": "performUpkeep",
      "outputs": [],
      "stateMutability": "nonpayable",
      "type": "function"
    },
    {
      "inputs": [],
      "name": "renounceOwnership",
      "outputs": [],
      "stateMutability": "nonpayable",
      "type": "function"
    },
    {
      "inputs": [
        {
          "internalType": "uint256",
          "name": "newMinAmount",
          "type": "uint256"
        }
      ],
      "name": "setMinSushiAmount",
      "outputs": [],
      "stateMutability": "nonpayable",
      "type": "function"
    },
    {
      "inputs": [
        {
          "internalType": "address[]",
          "name": "_servers",
          "type": "address[]"
        }
      ],
      "name": "setServers",
      "outputs": [],
      "stateMutability": "nonpayable",
      "type": "function"
    },
    {
      "inputs": [
        {
          "internalType": "address",
          "name": "newOwner",
          "type": "address"
        }
      ],
      "name": "transferOwnership",
      "outputs": [],
      "stateMutability": "nonpayable",
      "type": "function"
    }
  ],
  "transactionHash": "0x3bcd1d6a0b41ffc945afd04e3e1e0656efa26e48ede70cb5d90bb09ede46e4c6",
  "args": [
    "0xc2EdaD668740f1aA35E4D8f227fB8E17dcA888Cd",
    "1000000000000000000000"
  ],
  "solcInputHash": "a3d94d2e76ab3f8a15679501f0b410f6",
  "bytecode": "0x60a060405234801561001057600080fd5b50604051610dd4380380610dd483398101604081905261002f9161009e565b6100383361004e565b6001600160a01b039091166080526001556100d8565b600080546001600160a01b038381166001600160a01b0319831681178455604051919092169283917f8be0079c531659141344cd1fd0a4f28419497f9722a3daafe3b4186f6b6457e09190a35050565b600080604083850312156100b157600080fd5b82516001600160a01b03811681146100c857600080fd5b6020939093015192949293505050565b608051610cda6100fa6000396000818161026601526104880152610cda6000f3fe608060405234801561001057600080fd5b50600436106100a35760003560e01c8063715018a6116100765780638da5cb5b1161005b5780638da5cb5b1461012a578063a515f06a14610152578063f2fde38b1461016557600080fd5b8063715018a61461010d57806375c1c7e71461011557600080fd5b8063054feba0146100a857806329f54b45146100bd5780634585e33b146100d95780636e04ff0d146100ec575b600080fd5b6100bb6100b63660046109fa565b610178565b005b6100c660015481565b6040519081526020015b60405180910390f35b6100bb6100e7366004610a6f565b61020f565b6100ff6100fa366004610a6f565b61042e565b6040516100d0929190610acf565b6100bb610636565b61011d6106c3565b6040516100d09190610b4c565b60005460405173ffffffffffffffffffffffffffffffffffffffff90911681526020016100d0565b6100bb610160366004610ba6565b610732565b6100bb610173366004610bbf565b6107b8565b60005473ffffffffffffffffffffffffffffffffffffffff1633146101fe576040517f08c379a000000000000000000000000000000000000000000000000000000000815260206004820181905260248201527f4f776e61626c653a2063616c6c6572206973206e6f7420746865206f776e657260448201526064015b60405180910390fd5b61020a6002838361095d565b505050565b600061021d82840184610ba6565b905060006002828154811061023457610234610bfc565b9060005260206000200160009054906101000a900473ffffffffffffffffffffffffffffffffffffffff1690506001547f000000000000000000000000000000000000000000000000000000000000000073ffffffffffffffffffffffffffffffffffffffff1663195426ec8373ffffffffffffffffffffffffffffffffffffffff1663f10684546040518163ffffffff1660e01b8152600401602060405180830381865afa1580156102eb573d6000803e3d6000fd5b505050506040513d601f19601f8201168201806040525081019061030f9190610c2b565b6002868154811061032257610322610bfc565b60009182526020909120015460405160e084901b7fffffffff00000000000000000000000000000000000000000000000000000000168152600481019290925273ffffffffffffffffffffffffffffffffffffffff166024820152604401602060405180830381865afa15801561039d573d6000803e3d6000fd5b505050506040513d601f19601f820116820180604052508101906103c19190610c2b565b1115610428578073ffffffffffffffffffffffffffffffffffffffff1663d24a89d56040518163ffffffff1660e01b8152600401600060405180830381600087803b15801561040f57600080fd5b505af1158015610423573d6000803e3d6000fd5b505050505b50505050565b600254600090606090825b8181101561062c5760006002828154811061045657610456610bfc565b9060005260206000200160009054906101000a900473ffffffffffffffffffffffffffffffffffffffff1690506001547f000000000000000000000000000000000000000000000000000000000000000073ffffffffffffffffffffffffffffffffffffffff1663195426ec8373ffffffffffffffffffffffffffffffffffffffff1663f10684546040518163ffffffff1660e01b8152600401602060405180830381865afa15801561050d573d6000803e3d6000fd5b505050506040513d601f19601f820116820180604052508101906105319190610c2b565b6002868154811061054457610544610bfc565b60009182526020909120015460405160e084901b7fffffffff00000000000000000000000000000000000000000000000000000000168152600481019290925273ffffffffffffffffffffffffffffffffffffffff166024820152604401602060405180830381865afa1580156105bf573d6000803e3d6000fd5b505050506040513d601f19601f820116820180604052508101906105e39190610c2b565b1115610619576001826040516020016105fe91815260200190565b6040516020818303038152906040529450945050505061062f565b508061062481610c44565b915050610439565b50505b9250929050565b60005473ffffffffffffffffffffffffffffffffffffffff1633146106b7576040517f08c379a000000000000000000000000000000000000000000000000000000000815260206004820181905260248201527f4f776e61626c653a2063616c6c6572206973206e6f7420746865206f776e657260448201526064016101f5565b6106c160006108e8565b565b6060600280548060200260200160405190810160405280929190818152602001828054801561072857602002820191906000526020600020905b815473ffffffffffffffffffffffffffffffffffffffff1681526001909101906020018083116106fd575b5050505050905090565b60005473ffffffffffffffffffffffffffffffffffffffff1633146107b3576040517f08c379a000000000000000000000000000000000000000000000000000000000815260206004820181905260248201527f4f776e61626c653a2063616c6c6572206973206e6f7420746865206f776e657260448201526064016101f5565b600155565b60005473ffffffffffffffffffffffffffffffffffffffff163314610839576040517f08c379a000000000000000000000000000000000000000000000000000000000815260206004820181905260248201527f4f776e61626c653a2063616c6c6572206973206e6f7420746865206f776e657260448201526064016101f5565b73ffffffffffffffffffffffffffffffffffffffff81166108dc576040517f08c379a000000000000000000000000000000000000000000000000000000000815260206004820152602660248201527f4f776e61626c653a206e6577206f776e657220697320746865207a65726f206160448201527f646472657373000000000000000000000000000000000000000000000000000060648201526084016101f5565b6108e5816108e8565b50565b6000805473ffffffffffffffffffffffffffffffffffffffff8381167fffffffffffffffffffffffff0000000000000000000000000000000000000000831681178455604051919092169283917f8be0079c531659141344cd1fd0a4f28419497f9722a3daafe3b4186f6b6457e09190a35050565b8280548282559060005260206000209081019282156109d5579160200282015b828111156109d55781547fffffffffffffffffffffffff00000000000000000000000000000000000000001673ffffffffffffffffffffffffffffffffffffffff84351617825560209092019160019091019061097d565b506109e19291506109e5565b5090565b5b808211156109e157600081556001016109e6565b60008060208385031215610a0d57600080fd5b823567ffffffffffffffff80821115610a2557600080fd5b818501915085601f830112610a3957600080fd5b813581811115610a4857600080fd5b8660208260051b8501011115610a5d57600080fd5b60209290920196919550909350505050565b60008060208385031215610a8257600080fd5b823567ffffffffffffffff80821115610a9a57600080fd5b818501915085601f830112610aae57600080fd5b813581811115610abd57600080fd5b866020828501011115610a5d57600080fd5b821515815260006020604081840152835180604085015260005b81811015610b0557858101830151858201606001528201610ae9565b81811115610b17576000606083870101525b50601f017fffffffffffffffffffffffffffffffffffffffffffffffffffffffffffffffe01692909201606001949350505050565b6020808252825182820181905260009190848201906040850190845b81811015610b9a57835173ffffffffffffffffffffffffffffffffffffffff1683529284019291840191600101610b68565b50909695505050505050565b600060208284031215610bb857600080fd5b5035919050565b600060208284031215610bd157600080fd5b813573ffffffffffffffffffffffffffffffffffffffff81168114610bf557600080fd5b9392505050565b7f4e487b7100000000000000000000000000000000000000000000000000000000600052603260045260246000fd5b600060208284031215610c3d57600080fd5b5051919050565b60007fffffffffffffffffffffffffffffffffffffffffffffffffffffffffffffffff821415610c9d577f4e487b7100000000000000000000000000000000000000000000000000000000600052601160045260246000fd5b506001019056fea26469706673582212201ccef9499b8a24f1d60e897f6a9160eb509cb50605368b8cb3aa4a769d7bd32664736f6c634300080a0033",
  "devdoc": {
    "kind": "dev",
    "methods": {
      "owner()": {
        "details": "Returns the address of the current owner."
      },
      "renounceOwnership()": {
        "details": "Leaves the contract without owner. It will not be possible to call `onlyOwner` functions anymore. Can only be called by the current owner. NOTE: Renouncing ownership will leave the contract without an owner, thereby removing any functionality that is only available to the owner."
      },
      "transferOwnership(address)": {
        "details": "Transfers ownership of the contract to a new account (`newOwner`). Can only be called by the current owner."
      }
    },
    "version": 1
  },
  "userdoc": {
    "kind": "user",
    "methods": {
      "checkUpkeep(bytes)": {
        "notice": "View function checked by the keeper on every block"
      },
      "getServers()": {
        "notice": "Servers array getter"
      },
      "performUpkeep(bytes)": {
        "notice": "Function executed by the keeper if checkUpKeep returns true"
      },
      "setMinSushiAmount(uint256)": {
        "notice": "Set the minimum sushi amount available to be harvested to execute a harvestAndBridge"
      },
      "setServers(address[])": {
        "notice": "Set the array of servers to be checked by the keeper"
      }
    },
    "version": 1
  },
  "storageLayout": {
    "storage": [
      {
        "astId": 7,
        "contract": "contracts/ServersKeeper.sol:ServersKeeper",
        "label": "_owner",
        "offset": 0,
        "slot": "0",
        "type": "t_address"
      },
      {
        "astId": 1131,
        "contract": "contracts/ServersKeeper.sol:ServersKeeper",
        "label": "minSushiAmount",
        "offset": 0,
        "slot": "1",
        "type": "t_uint256"
      },
      {
        "astId": 1134,
        "contract": "contracts/ServersKeeper.sol:ServersKeeper",
        "label": "servers",
        "offset": 0,
        "slot": "2",
        "type": "t_array(t_address)dyn_storage"
      }
    ],
    "types": {
      "t_address": {
        "encoding": "inplace",
        "label": "address",
        "numberOfBytes": "20"
      },
      "t_array(t_address)dyn_storage": {
        "base": "t_address",
        "encoding": "dynamic_array",
        "label": "address[]",
        "numberOfBytes": "32"
      },
      "t_uint256": {
        "encoding": "inplace",
        "label": "uint256",
        "numberOfBytes": "32"
      }
    }
  }
}