{
  "address": "0xBbD10280DD13de418f666648D2488e4059F56d81",
  "abi": [
    {
      "inputs": [
        {
          "internalType": "uint256",
          "name": "_pid",
          "type": "uint256"
        },
        {
          "internalType": "address",
          "name": "_minichef",
          "type": "address"
        }
      ],
      "stateMutability": "nonpayable",
      "type": "constructor"
    },
    {
      "anonymous": false,
      "inputs": [
        {
          "indexed": true,
          "internalType": "address",
          "name": "newBridgeAdapter",
          "type": "address"
        }
      ],
      "name": "BridgeUpdated",
      "type": "event"
    },
    {
      "anonymous": false,
      "inputs": [
        {
          "indexed": true,
          "internalType": "address",
          "name": "minichef",
          "type": "address"
        },
        {
          "indexed": true,
          "internalType": "uint256",
          "name": "amount",
          "type": "uint256"
        }
      ],
      "name": "BridgedSushi",
      "type": "event"
    },
    {
      "anonymous": false,
      "inputs": [
        {
          "indexed": true,
          "internalType": "uint256",
          "name": "pid",
          "type": "uint256"
        },
        {
          "indexed": true,
          "internalType": "uint256",
          "name": "amount",
          "type": "uint256"
        }
      ],
      "name": "Deposited",
      "type": "event"
    },
    {
      "anonymous": false,
      "inputs": [
        {
          "indexed": true,
          "internalType": "uint256",
          "name": "pid",
          "type": "uint256"
        }
      ],
      "name": "Harvested",
      "type": "event"
    },
    {
      "anonymous": false,
      "inputs": [
        {
          "indexed": true,
          "internalType": "address",
          "name": "previousOwner",
          "type": "address"
        },
        {
          "indexed": true,
          "internalType": "address",
          "name": "newOwner",
          "type": "address"
        }
      ],
      "name": "OwnershipTransferred",
      "type": "event"
    },
    {
      "anonymous": false,
      "inputs": [
        {
          "indexed": true,
          "internalType": "uint256",
          "name": "pid",
          "type": "uint256"
        },
        {
          "indexed": true,
          "internalType": "uint256",
          "name": "amount",
          "type": "uint256"
        }
      ],
      "name": "Withdrawn",
      "type": "event"
    },
    {
      "anonymous": false,
      "inputs": [
        {
          "indexed": true,
          "internalType": "uint256",
          "name": "pid",
          "type": "uint256"
        }
      ],
      "name": "WithdrawnDummyToken",
      "type": "event"
    },
    {
      "anonymous": false,
      "inputs": [
        {
          "indexed": true,
          "internalType": "uint256",
          "name": "pid",
          "type": "uint256"
        },
        {
          "indexed": true,
          "internalType": "uint256",
          "name": "amount",
          "type": "uint256"
        }
      ],
      "name": "WithdrawnSushi",
      "type": "event"
    },
    {
      "inputs": [],
      "name": "bridge",
      "outputs": [],
      "stateMutability": "nonpayable",
      "type": "function"
    },
    {
      "inputs": [],
      "name": "bridgeAdapter",
      "outputs": [
        {
          "internalType": "address",
          "name": "",
          "type": "address"
        }
      ],
      "stateMutability": "view",
      "type": "function"
    },
    {
      "inputs": [],
      "name": "bridgeAddr",
      "outputs": [
        {
          "internalType": "address",
          "name": "",
          "type": "address"
        }
      ],
      "stateMutability": "view",
      "type": "function"
    },
    {
      "inputs": [
        {
          "internalType": "address",
          "name": "token",
          "type": "address"
        }
      ],
      "name": "deposit",
      "outputs": [],
      "stateMutability": "nonpayable",
      "type": "function"
    },
    {
      "inputs": [],
      "name": "harvestAndBridge",
      "outputs": [],
      "stateMutability": "nonpayable",
      "type": "function"
    },
    {
      "inputs": [],
      "name": "masterchefV1",
      "outputs": [
        {
          "internalType": "contract IMasterChefV1",
          "name": "",
          "type": "address"
        }
      ],
      "stateMutability": "view",
      "type": "function"
    },
    {
      "inputs": [],
      "name": "minichef",
      "outputs": [
        {
          "internalType": "address",
          "name": "",
          "type": "address"
        }
      ],
      "stateMutability": "view",
      "type": "function"
    },
    {
      "inputs": [],
      "name": "owner",
      "outputs": [
        {
          "internalType": "address",
          "name": "",
          "type": "address"
        }
      ],
      "stateMutability": "view",
      "type": "function"
    },
    {
      "inputs": [],
      "name": "pid",
      "outputs": [
        {
          "internalType": "uint256",
          "name": "",
          "type": "uint256"
        }
      ],
      "stateMutability": "view",
      "type": "function"
    },
    {
      "inputs": [],
      "name": "renounceOwnership",
      "outputs": [],
      "stateMutability": "nonpayable",
      "type": "function"
    },
    {
      "inputs": [],
      "name": "sushi",
      "outputs": [
        {
          "internalType": "contract IERC20",
          "name": "",
          "type": "address"
        }
      ],
      "stateMutability": "view",
      "type": "function"
    },
    {
      "inputs": [
        {
          "internalType": "address",
          "name": "newOwner",
          "type": "address"
        }
      ],
      "name": "transferOwnership",
      "outputs": [],
      "stateMutability": "nonpayable",
      "type": "function"
    },
    {
      "inputs": [
        {
          "internalType": "address",
          "name": "newBridgeAdapter",
          "type": "address"
        }
      ],
      "name": "updateBridgeAdapter",
      "outputs": [],
      "stateMutability": "nonpayable",
      "type": "function"
    },
    {
      "inputs": [],
      "name": "withdraw",
      "outputs": [],
      "stateMutability": "nonpayable",
      "type": "function"
    },
    {
      "inputs": [
        {
          "internalType": "address",
          "name": "token",
          "type": "address"
        },
        {
          "internalType": "address",
          "name": "recipient",
          "type": "address"
        }
      ],
      "name": "withdrawDummyToken",
      "outputs": [],
      "stateMutability": "nonpayable",
      "type": "function"
    },
    {
      "inputs": [
        {
          "internalType": "address",
          "name": "recipient",
          "type": "address"
        }
      ],
      "name": "withdrawSushiToken",
      "outputs": [],
      "stateMutability": "nonpayable",
      "type": "function"
    }
  ],
  "transactionHash": "0x431480e52e1856deab65793ebb0f9e089891df49a6f989243a395242e0dcd8c0",
  "args": [
    346,
    "0xdDCbf776dF3dE60163066A5ddDF2277cB445E0F3"
  ],
  "solcInputHash": "b6b96639bb7925217c746581f4d9ba5e",
  "bytecode": "0x60c060405234801561001057600080fd5b506040516114fa3803806114fa83398101604081905261002f916100b5565b818161003a33610065565b6080919091526001600160a01b031660a0525050600180546001600160a01b031916301790556100f2565b600080546001600160a01b038381166001600160a01b0319831681178455604051919092169283917f8be0079c531659141344cd1fd0a4f28419497f9722a3daafe3b4186f6b6457e09190a35050565b600080604083850312156100c857600080fd5b825160208401519092506001600160a01b03811681146100e757600080fd5b809150509250929050565b60805160a05161139d61015d60003960008181610174015281816111cb015261126301526000818161024501528181610349015281816103cc0152818161072f0152818161093f015281816109b101528181610a3a01528181610ef60152610f79015261139d6000f3fe608060405234801561001057600080fd5b50600436106101005760003560e01c8063b7d87f7311610097578063e78cea9211610066578063e78cea9214610238578063f106845414610240578063f2fde38b14610275578063f340fa011461028857600080fd5b8063b7d87f73146101e2578063be7dc09b146101f5578063ca5a79ea14610215578063d24a89d51461023057600080fd5b806387fcfb97116100d357806387fcfb971461016f5780638da5cb5b1461019657806391874ef7146101b4578063b62f5765146101cf57600080fd5b80630a087903146101055780633ccfd60b1461014a5780635e9ec2a414610154578063715018a614610167575b600080fd5b610120736b3595068778dd592e39a122f4f5a5cf09c90fe281565b60405173ffffffffffffffffffffffffffffffffffffffff90911681526020015b60405180910390f35b61015261029b565b005b6101526101623660046112d7565b610415565b610152610582565b6101207f000000000000000000000000000000000000000000000000000000000000000081565b60005473ffffffffffffffffffffffffffffffffffffffff16610120565b6101207388ad09518695c6c3712ac10a214be5109a65567181565b6101526101dd3660046112f9565b61060f565b6101526101f03660046112d7565b610779565b6001546101209073ffffffffffffffffffffffffffffffffffffffff1681565b61012073c2edad668740f1aa35e4d8f227fb8e17dca888cd81565b610152610989565b610152610a82565b6102677f000000000000000000000000000000000000000000000000000000000000000081565b604051908152602001610141565b6101526102833660046112d7565b610c71565b6101526102963660046112d7565b610da1565b60005473ffffffffffffffffffffffffffffffffffffffff163314610321576040517f08c379a000000000000000000000000000000000000000000000000000000000815260206004820181905260248201527f4f776e61626c653a2063616c6c6572206973206e6f7420746865206f776e657260448201526064015b60405180910390fd5b6040517f441a3e700000000000000000000000000000000000000000000000000000000081527f000000000000000000000000000000000000000000000000000000000000000060048201526001602482015273c2edad668740f1aa35e4d8f227fb8e17dca888cd9063441a3e7090604401600060405180830381600087803b1580156103ad57600080fd5b505af11580156103c1573d6000803e3d6000fd5b5050604051600192507f000000000000000000000000000000000000000000000000000000000000000091507f0c875c8d391179c5cf7ad8303d268efd50b8beb78b671f85cd54bfb91eb8ef4090600090a3565b60005473ffffffffffffffffffffffffffffffffffffffff163314610496576040517f08c379a000000000000000000000000000000000000000000000000000000000815260206004820181905260248201527f4f776e61626c653a2063616c6c6572206973206e6f7420746865206f776e65726044820152606401610318565b73ffffffffffffffffffffffffffffffffffffffff8116610513576040517f08c379a000000000000000000000000000000000000000000000000000000000815260206004820152600c60248201527f7a65726f206164647265737300000000000000000000000000000000000000006044820152606401610318565b600180547fffffffffffffffffffffffff00000000000000000000000000000000000000001673ffffffffffffffffffffffffffffffffffffffff83169081179091556040517fe1694c0b21fdceff6411daed547c7463c2341b9695387bc82595b5b9b1851d4a90600090a250565b60005473ffffffffffffffffffffffffffffffffffffffff163314610603576040517f08c379a000000000000000000000000000000000000000000000000000000000815260206004820181905260248201527f4f776e61626c653a2063616c6c6572206973206e6f7420746865206f776e65726044820152606401610318565b61060d6000610fc3565b565b60005473ffffffffffffffffffffffffffffffffffffffff163314610690576040517f08c379a000000000000000000000000000000000000000000000000000000000815260206004820181905260248201527f4f776e61626c653a2063616c6c6572206973206e6f7420746865206f776e65726044820152606401610318565b6040517fa9059cbb00000000000000000000000000000000000000000000000000000000815273ffffffffffffffffffffffffffffffffffffffff82811660048301526001602483015283169063a9059cbb906044016020604051808303816000875af1158015610705573d6000803e3d6000fd5b505050506040513d601f19601f82011682018060405250810190610729919061132c565b506040517f0000000000000000000000000000000000000000000000000000000000000000907fba72a1c6fb7c9e7f35c71c2c716849c2ccd659d35f4fdc3449b7240130da52d590600090a25050565b60005473ffffffffffffffffffffffffffffffffffffffff1633146107fa576040517f08c379a000000000000000000000000000000000000000000000000000000000815260206004820181905260248201527f4f776e61626c653a2063616c6c6572206973206e6f7420746865206f776e65726044820152606401610318565b6040517f70a08231000000000000000000000000000000000000000000000000000000008152306004820152600090736b3595068778dd592e39a122f4f5a5cf09c90fe2906370a0823190602401602060405180830381865afa158015610865573d6000803e3d6000fd5b505050506040513d601f19601f82011682018060405250810190610889919061134e565b6040517fa9059cbb00000000000000000000000000000000000000000000000000000000815273ffffffffffffffffffffffffffffffffffffffff8416600482015260248101829052909150736b3595068778dd592e39a122f4f5a5cf09c90fe29063a9059cbb906044016020604051808303816000875af1158015610913573d6000803e3d6000fd5b505050506040513d601f19601f82011682018060405250810190610937919061132c565b5060405181907f0000000000000000000000000000000000000000000000000000000000000000907f8b39ec9eff477fd9d48c21ccd568bc1b6579e08559a161a7679819240975533e90600090a35050565b6040517f441a3e700000000000000000000000000000000000000000000000000000000081527f000000000000000000000000000000000000000000000000000000000000000060048201526000602482015273c2edad668740f1aa35e4d8f227fb8e17dca888cd9063441a3e7090604401600060405180830381600087803b158015610a1557600080fd5b505af1158015610a29573d6000803e3d6000fd5b50505050610a35610a82565b6040517f0000000000000000000000000000000000000000000000000000000000000000907f8e55ccfc9778ff8eba1646d765cf1982537ce0f9257054a17b48aad74525018390600090a2565b60015473ffffffffffffffffffffffffffffffffffffffff16301415610aaa5761060d611038565b6040517f70a08231000000000000000000000000000000000000000000000000000000008152306004820152600090736b3595068778dd592e39a122f4f5a5cf09c90fe2906370a0823190602401602060405180830381865afa158015610b15573d6000803e3d6000fd5b505050506040513d601f19601f82011682018060405250810190610b39919061134e565b6001546040517fa9059cbb00000000000000000000000000000000000000000000000000000000815273ffffffffffffffffffffffffffffffffffffffff909116600482015260248101829052909150736b3595068778dd592e39a122f4f5a5cf09c90fe29063a9059cbb906044016020604051808303816000875af1158015610bc7573d6000803e3d6000fd5b505050506040513d601f19601f82011682018060405250810190610beb919061132c565b50600160009054906101000a900473ffffffffffffffffffffffffffffffffffffffff1673ffffffffffffffffffffffffffffffffffffffff1663e78cea926040518163ffffffff1660e01b8152600401600060405180830381600087803b158015610c5657600080fd5b505af1158015610c6a573d6000803e3d6000fd5b5050505050565b60005473ffffffffffffffffffffffffffffffffffffffff163314610cf2576040517f08c379a000000000000000000000000000000000000000000000000000000000815260206004820181905260248201527f4f776e61626c653a2063616c6c6572206973206e6f7420746865206f776e65726044820152606401610318565b73ffffffffffffffffffffffffffffffffffffffff8116610d95576040517f08c379a000000000000000000000000000000000000000000000000000000000815260206004820152602660248201527f4f776e61626c653a206e6577206f776e657220697320746865207a65726f206160448201527f64647265737300000000000000000000000000000000000000000000000000006064820152608401610318565b610d9e81610fc3565b50565b60005473ffffffffffffffffffffffffffffffffffffffff163314610e22576040517f08c379a000000000000000000000000000000000000000000000000000000000815260206004820181905260248201527f4f776e61626c653a2063616c6c6572206973206e6f7420746865206f776e65726044820152606401610318565b6040517f095ea7b300000000000000000000000000000000000000000000000000000000815273c2edad668740f1aa35e4d8f227fb8e17dca888cd60048201526001602482015273ffffffffffffffffffffffffffffffffffffffff82169063095ea7b3906044016020604051808303816000875af1158015610ea9573d6000803e3d6000fd5b505050506040513d601f19601f82011682018060405250810190610ecd919061132c565b506040517fe2bbb1580000000000000000000000000000000000000000000000000000000081527f000000000000000000000000000000000000000000000000000000000000000060048201526001602482015273c2edad668740f1aa35e4d8f227fb8e17dca888cd9063e2bbb15890604401600060405180830381600087803b158015610f5a57600080fd5b505af1158015610f6e573d6000803e3d6000fd5b5050604051600192507f000000000000000000000000000000000000000000000000000000000000000091507f06da3309189fa49284f335d2c2bcb4cb0b8ad2a59ad92a9bdebeeb8f1ceba51190600090a350565b6000805473ffffffffffffffffffffffffffffffffffffffff8381167fffffffffffffffffffffffff0000000000000000000000000000000000000000831681178455604051919092169283917f8be0079c531659141344cd1fd0a4f28419497f9722a3daafe3b4186f6b6457e09190a35050565b6040517f70a08231000000000000000000000000000000000000000000000000000000008152306004820152600090736b3595068778dd592e39a122f4f5a5cf09c90fe2906370a0823190602401602060405180830381865afa1580156110a3573d6000803e3d6000fd5b505050506040513d601f19601f820116820180604052508101906110c7919061134e565b6040517f095ea7b30000000000000000000000000000000000000000000000000000000081527388ad09518695c6c3712ac10a214be5109a655671600482015260248101829052909150736b3595068778dd592e39a122f4f5a5cf09c90fe29063095ea7b3906044016020604051808303816000875af115801561114f573d6000803e3d6000fd5b505050506040513d601f19601f82011682018060405250810190611173919061132c565b506040517fad58bdd1000000000000000000000000000000000000000000000000000000008152736b3595068778dd592e39a122f4f5a5cf09c90fe2600482015273ffffffffffffffffffffffffffffffffffffffff7f0000000000000000000000000000000000000000000000000000000000000000166024820152604481018290527388ad09518695c6c3712ac10a214be5109a6556719063ad58bdd190606401600060405180830381600087803b15801561123057600080fd5b505af1158015611244573d6000803e3d6000fd5b505060405183925073ffffffffffffffffffffffffffffffffffffffff7f00000000000000000000000000000000000000000000000000000000000000001691507f9d48f6ecbf6b1efdebdb866a0442bae03dfdfc3ee5d20cc9f641799ce66c83a290600090a350565b803573ffffffffffffffffffffffffffffffffffffffff811681146112d257600080fd5b919050565b6000602082840312156112e957600080fd5b6112f2826112ae565b9392505050565b6000806040838503121561130c57600080fd5b611315836112ae565b9150611323602084016112ae565b90509250929050565b60006020828403121561133e57600080fd5b815180151581146112f257600080fd5b60006020828403121561136057600080fd5b505191905056fea264697066735822122092cd88e5b9b412a0995bb8d1af42356872569d8d81fe2fa45f00e7dd4b96795e64736f6c634300080a0033",
  "devdoc": {
    "kind": "dev",
    "methods": {
      "owner()": {
        "details": "Returns the address of the current owner."
      },
      "renounceOwnership()": {
        "details": "Leaves the contract without owner. It will not be possible to call `onlyOwner` functions anymore. Can only be called by the current owner. NOTE: Renouncing ownership will leave the contract without an owner, thereby removing any functionality that is only available to the owner."
      },
      "transferOwnership(address)": {
        "details": "Transfers ownership of the contract to a new account (`newOwner`). Can only be called by the current owner."
      }
    },
    "version": 1
  },
  "userdoc": {
    "kind": "user",
    "methods": {},
    "version": 1
  },
  "storageLayout": {
    "storage": [
      {
        "astId": 7,
        "contract": "contracts/implementations/xDaiServer.sol:xDaiServer",
        "label": "_owner",
        "offset": 0,
        "slot": "0",
        "type": "t_address"
      },
      {
        "astId": 818,
        "contract": "contracts/implementations/xDaiServer.sol:xDaiServer",
        "label": "bridgeAdapter",
        "offset": 0,
        "slot": "1",
        "type": "t_address"
      }
    ],
    "types": {
      "t_address": {
        "encoding": "inplace",
        "label": "address",
        "numberOfBytes": "20"
      }
    }
  }
}