{
  "address": "0x16E699e0EC08302faB1e0E7DC98eec859cFdb100",
  "abi": [
    {
      "inputs": [
        {
          "internalType": "uint256",
          "name": "_pid",
          "type": "uint256"
        },
        {
          "internalType": "address",
          "name": "_minichef",
          "type": "address"
        }
      ],
      "stateMutability": "nonpayable",
      "type": "constructor"
    },
    {
      "anonymous": false,
      "inputs": [
        {
          "indexed": true,
          "internalType": "address",
          "name": "minichef",
          "type": "address"
        },
        {
          "indexed": true,
          "internalType": "uint256",
          "name": "amount",
          "type": "uint256"
        }
      ],
      "name": "BridgedSushi",
      "type": "event"
    },
    {
      "anonymous": false,
      "inputs": [
        {
          "indexed": true,
          "internalType": "uint256",
          "name": "pid",
          "type": "uint256"
        },
        {
          "indexed": true,
          "internalType": "uint256",
          "name": "amount",
          "type": "uint256"
        }
      ],
      "name": "Deposit",
      "type": "event"
    },
    {
      "anonymous": false,
      "inputs": [
        {
          "indexed": true,
          "internalType": "uint256",
          "name": "pid",
          "type": "uint256"
        }
      ],
      "name": "Harvest",
      "type": "event"
    },
    {
      "anonymous": false,
      "inputs": [
        {
          "indexed": true,
          "internalType": "address",
          "name": "previousOwner",
          "type": "address"
        },
        {
          "indexed": true,
          "internalType": "address",
          "name": "newOwner",
          "type": "address"
        }
      ],
      "name": "OwnershipTransferred",
      "type": "event"
    },
    {
      "anonymous": false,
      "inputs": [
        {
          "indexed": true,
          "internalType": "uint256",
          "name": "pid",
          "type": "uint256"
        },
        {
          "indexed": true,
          "internalType": "uint256",
          "name": "amount",
          "type": "uint256"
        }
      ],
      "name": "Withdraw",
      "type": "event"
    },
    {
      "inputs": [],
      "name": "bridge",
      "outputs": [],
      "stateMutability": "nonpayable",
      "type": "function"
    },
    {
      "inputs": [],
      "name": "bridgeAddr",
      "outputs": [
        {
          "internalType": "address",
          "name": "",
          "type": "address"
        }
      ],
      "stateMutability": "view",
      "type": "function"
    },
    {
      "inputs": [
        {
          "internalType": "address",
          "name": "token",
          "type": "address"
        }
      ],
      "name": "deposit",
      "outputs": [],
      "stateMutability": "nonpayable",
      "type": "function"
    },
    {
      "inputs": [],
      "name": "harvestAndBridge",
      "outputs": [],
      "stateMutability": "nonpayable",
      "type": "function"
    },
    {
      "inputs": [],
      "name": "masterchefV1",
      "outputs": [
        {
          "internalType": "contract IMasterChefV1",
          "name": "",
          "type": "address"
        }
      ],
      "stateMutability": "view",
      "type": "function"
    },
    {
      "inputs": [],
      "name": "minichef",
      "outputs": [
        {
          "internalType": "address",
          "name": "",
          "type": "address"
        }
      ],
      "stateMutability": "view",
      "type": "function"
    },
    {
      "inputs": [],
      "name": "owner",
      "outputs": [
        {
          "internalType": "address",
          "name": "",
          "type": "address"
        }
      ],
      "stateMutability": "view",
      "type": "function"
    },
    {
      "inputs": [],
      "name": "pid",
      "outputs": [
        {
          "internalType": "uint256",
          "name": "",
          "type": "uint256"
        }
      ],
      "stateMutability": "view",
      "type": "function"
    },
    {
      "inputs": [],
      "name": "renounceOwnership",
      "outputs": [],
      "stateMutability": "nonpayable",
      "type": "function"
    },
    {
      "inputs": [],
      "name": "sushi",
      "outputs": [
        {
          "internalType": "contract IERC20",
          "name": "",
          "type": "address"
        }
      ],
      "stateMutability": "view",
      "type": "function"
    },
    {
      "inputs": [
        {
          "internalType": "address",
          "name": "newOwner",
          "type": "address"
        }
      ],
      "name": "transferOwnership",
      "outputs": [],
      "stateMutability": "nonpayable",
      "type": "function"
    },
    {
      "inputs": [],
      "name": "withdraw",
      "outputs": [],
      "stateMutability": "nonpayable",
      "type": "function"
    }
  ],
  "transactionHash": "0x94a07c58346b7f04bb87b9460f99e032add5f033012c9ee9809ec74549824faf",
  "args": [
    346,
    "0xdDCbf776dF3dE60163066A5ddDF2277cB445E0F3"
  ],
  "solcInputHash": "96f1193930a97b784f8d9662aa21fea2",
  "bytecode": "0x60c060405234801561001057600080fd5b50604051610ac9380380610ac983398101604081905261002f916100a8565b818161003a33610058565b60809190915260601b6001600160601b03191660a052506100e39050565b600080546001600160a01b038381166001600160a01b0319831681178455604051919092169283917f8be0079c531659141344cd1fd0a4f28419497f9722a3daafe3b4186f6b6457e09190a35050565b600080604083850312156100ba578182fd5b825160208401519092506001600160a01b03811681146100d8578182fd5b809150509250929050565b60805160a05160601c610986610143600039600081816101080152818161055901526105e40152600081816101860152818161021e015281816102a10152818161032f015281816103b801528181610798015261081b01526109866000f3fe608060405234801561001057600080fd5b50600436106100b45760003560e01c8063ca5a79ea11610071578063ca5a79ea14610156578063d24a89d514610171578063e78cea9214610179578063f106845414610181578063f2fde38b146101b6578063f340fa01146101c957600080fd5b80630a087903146100b95780633ccfd60b146100f1578063715018a6146100fb57806387fcfb97146101035780638da5cb5b1461012a57806391874ef71461013b575b600080fd5b6100d4736b3595068778dd592e39a122f4f5a5cf09c90fe281565b6040516001600160a01b0390911681526020015b60405180910390f35b6100f96101dc565b005b6100f96102ea565b6100d47f000000000000000000000000000000000000000000000000000000000000000081565b6000546001600160a01b03166100d4565b6100d47388ad09518695c6c3712ac10a214be5109a65567181565b6100d473c2edad668740f1aa35e4d8f227fb8e17dca888cd81565b6100f9610320565b6100f9610400565b6101a87f000000000000000000000000000000000000000000000000000000000000000081565b6040519081526020016100e8565b6100f96101c43660046108b5565b61062f565b6100f96101d73660046108b5565b6106ca565b6000546001600160a01b0316331461020f5760405162461bcd60e51b81526004016102069061091b565b60405180910390fd5b604051630441a3e760e41b81527f000000000000000000000000000000000000000000000000000000000000000060048201526001602482015273c2edad668740f1aa35e4d8f227fb8e17dca888cd9063441a3e7090604401600060405180830381600087803b15801561028257600080fd5b505af1158015610296573d6000803e3d6000fd5b5050604051600192507f000000000000000000000000000000000000000000000000000000000000000091507f56ca301a9219608c91e7bcee90e083c19671d2cdcc96752c7af291cee5f9c8c890600090a3565b6000546001600160a01b031633146103145760405162461bcd60e51b81526004016102069061091b565b61031e6000610865565b565b604051630441a3e760e41b81527f000000000000000000000000000000000000000000000000000000000000000060048201526000602482015273c2edad668740f1aa35e4d8f227fb8e17dca888cd9063441a3e7090604401600060405180830381600087803b15801561039357600080fd5b505af11580156103a7573d6000803e3d6000fd5b505050506103b3610400565b6040517f0000000000000000000000000000000000000000000000000000000000000000907f80f97f878e16410266694f134ddf012f2be424f54f8b5cafa107eccc51d00d5890600090a2565b6040516370a0823160e01b8152306004820152600090736b3595068778dd592e39a122f4f5a5cf09c90fe2906370a082319060240160206040518083038186803b15801561044d57600080fd5b505afa158015610461573d6000803e3d6000fd5b505050506040513d601f19601f820116820180604052508101906104859190610903565b60405163095ea7b360e01b81527388ad09518695c6c3712ac10a214be5109a655671600482015260248101829052909150736b3595068778dd592e39a122f4f5a5cf09c90fe29063095ea7b390604401602060405180830381600087803b1580156104ef57600080fd5b505af1158015610503573d6000803e3d6000fd5b505050506040513d601f19601f8201168201806040525081019061052791906108e3565b5060405163ad58bdd160e01b8152736b3595068778dd592e39a122f4f5a5cf09c90fe260048201526001600160a01b037f0000000000000000000000000000000000000000000000000000000000000000166024820152604481018290527388ad09518695c6c3712ac10a214be5109a6556719063ad58bdd190606401600060405180830381600087803b1580156105be57600080fd5b505af11580156105d2573d6000803e3d6000fd5b50506040518392506001600160a01b037f00000000000000000000000000000000000000000000000000000000000000001691507f9d48f6ecbf6b1efdebdb866a0442bae03dfdfc3ee5d20cc9f641799ce66c83a290600090a350565b6000546001600160a01b031633146106595760405162461bcd60e51b81526004016102069061091b565b6001600160a01b0381166106be5760405162461bcd60e51b815260206004820152602660248201527f4f776e61626c653a206e6577206f776e657220697320746865207a65726f206160448201526564647265737360d01b6064820152608401610206565b6106c781610865565b50565b6000546001600160a01b031633146106f45760405162461bcd60e51b81526004016102069061091b565b60405163095ea7b360e01b815273c2edad668740f1aa35e4d8f227fb8e17dca888cd6004820152600160248201526001600160a01b0382169063095ea7b390604401602060405180830381600087803b15801561075057600080fd5b505af1158015610764573d6000803e3d6000fd5b505050506040513d601f19601f8201168201806040525081019061078891906108e3565b50604051631c57762b60e31b81527f000000000000000000000000000000000000000000000000000000000000000060048201526001602482015273c2edad668740f1aa35e4d8f227fb8e17dca888cd9063e2bbb15890604401600060405180830381600087803b1580156107fc57600080fd5b505af1158015610810573d6000803e3d6000fd5b5050604051600192507f000000000000000000000000000000000000000000000000000000000000000091507fa3af609bf46297028ce551832669030f9effef2b02606d02cbbcc40fe6b47c5590600090a350565b600080546001600160a01b038381166001600160a01b0319831681178455604051919092169283917f8be0079c531659141344cd1fd0a4f28419497f9722a3daafe3b4186f6b6457e09190a35050565b6000602082840312156108c6578081fd5b81356001600160a01b03811681146108dc578182fd5b9392505050565b6000602082840312156108f4578081fd5b815180151581146108dc578182fd5b600060208284031215610914578081fd5b5051919050565b6020808252818101527f4f776e61626c653a2063616c6c6572206973206e6f7420746865206f776e657260408201526060019056fea26469706673582212206ad9c077628fa9f442af34a46d4df32677cef9b75471ed106d33382d2fe3d0fa64736f6c63430008040033",
  "devdoc": {
    "kind": "dev",
    "methods": {
      "owner()": {
        "details": "Returns the address of the current owner."
      },
      "renounceOwnership()": {
        "details": "Leaves the contract without owner. It will not be possible to call `onlyOwner` functions anymore. Can only be called by the current owner. NOTE: Renouncing ownership will leave the contract without an owner, thereby removing any functionality that is only available to the owner."
      },
      "transferOwnership(address)": {
        "details": "Transfers ownership of the contract to a new account (`newOwner`). Can only be called by the current owner."
      }
    },
    "version": 1
  },
  "userdoc": {
    "kind": "user",
    "methods": {},
    "version": 1
  },
  "storageLayout": {
    "storage": [
      {
        "astId": 7,
        "contract": "contracts/implementations/xDaiServer.sol:xDaiServer",
        "label": "_owner",
        "offset": 0,
        "slot": "0",
        "type": "t_address"
      }
    ],
    "types": {
      "t_address": {
        "encoding": "inplace",
        "label": "address",
        "numberOfBytes": "20"
      }
    }
  }
}